{
  "transactions": [
    {
      "hash": "0xc8d0eb92cdf14a8fc15949dab89eb82914029fda4c045e44bd50dc827425a02a",
      "transactionType": "CALL",
      "contractName": "SimpleBudgetWallet",
      "contractAddress": "0x316f0eb615c799e4bb0bab7c6026e952f25f3a92",
      "function": "spendFromBucket(address,string,uint256,address,address,bytes)",
      "arguments": [
        "0x5A6528b24d4aBE30c8c64672B00ccD2B9dD6ba33",
        "groceries",
        "10000000000000000",
        "0x742D35cC6634C0532925a3B8d1c5B5BEB0c23C00",
        "0x0000000000000000000000000000000000000000",
        "0x"
      ],
      "transaction": {
        "from": "0x5a6528b24d4abe30c8c64672b00ccd2b9dd6ba33",
        "to": "0x316f0eb615c799e4bb0bab7c6026e952f25f3a92",
        "gas": "0x243b5",
        "value": "0x0",
        "input": "0x091528a80000000000000000000000005a6528b24d4abe30c8c64672b00ccd2b9dd6ba3300000000000000000000000000000000000000000000000000000000000000c0000000000000000000000000000000000000000000000000002386f26fc10000000000000000000000000000742d35cc6634c0532925a3b8d1c5b5beb0c23c0000000000000000000000000000000000000000000000000000000000000000000000000000000000000000000000000000000000000000000000000000000100000000000000000000000000000000000000000000000000000000000000000967726f63657269657300000000000000000000000000000000000000000000000000000000000000000000000000000000000000000000000000000000000000",
        "nonce": "0xd",
        "chainId": "0x14a34"
      },
      "additionalContracts": [],
      "isFixedGasLimit": false
    }
  ],
  "receipts": [
    {
      "status": "0x1",
      "cumulativeGasUsed": "0x86fd26",
      "logs": [
        {
          "address": "0x316f0eb615c799e4bb0bab7c6026e952f25f3a92",
          "topics": [
            "0x21a8971d7f2f4d99234fe6ef84f11cd52662cd77cbf3af7a75d489f494466b7e",
            "0x0000000000000000000000005a6528b24d4abe30c8c64672b00ccd2b9dd6ba33"
          ],
          "data": "0x0000000000000000000000000000000000000000000000000000000000000080000000000000000000000000000000000000000000000000002386f26fc10000000000000000000000000000742d35cc6634c0532925a3b8d1c5b5beb0c23c000000000000000000000000000000000000000000000000000000000000000000000000000000000000000000000000000000000000000000000000000000000967726f6365726965730000000000000000000000000000000000000000000000",
          "blockHash": "0x2c9cd3271825a9dc0bd08ec4b61fc55eddce79a64be4028025fd3cfa7303cee8",
          "blockNumber": "0x1acbe3a",
          "transactionHash": "0xc8d0eb92cdf14a8fc15949dab89eb82914029fda4c045e44bd50dc827425a02a",
          "transactionIndex": "0x16",
          "logIndex": "0xe1",
          "removed": false
        }
      ],
      "logsBloom": "0x00000000000000000000000000000000000000000000000000000000000000000000000000000000002000000000000000000000000000000000000000000000000000000000000000000040000000000000000000000000000000000008000000000000000000000000000000000000000000000000000000000000000000002000000000000000000000000000000000000000000200000000000000000000000000000000000000000000000002004000000000000000000000000000000000000000000000000000000000000000000000040000000001000000000000000000000000000000000000000000000000000000000000000000000000000000",
      "type": "0x2",
      "transactionHash": "0xc8d0eb92cdf14a8fc15949dab89eb82914029fda4c045e44bd50dc827425a02a",
      "transactionIndex": "0x16",
      "blockHash": "0x2c9cd3271825a9dc0bd08ec4b61fc55eddce79a64be4028025fd3cfa7303cee8",
      "blockNumber": "0x1acbe3a",
      "gasUsed": "0x18c62",
      "effectiveGasPrice": "0xf42a3",
      "from": "0x5a6528b24d4abe30c8c64672b00ccd2b9dd6ba33",
      "to": "0x316f0eb615c799e4bb0bab7c6026e952f25f3a92",
      "contractAddress": null,
      "l1BaseFeeScalar": "0x44d",
      "l1BlobBaseFee": "0x1",
      "l1BlobBaseFeeScalar": "0xa118b",
      "l1Fee": "0xe8fea6e",
      "l1GasPrice": "0x5d82465",
      "l1GasUsed": "0x8d7"
    }
  ],
  "libraries": [],
  "pending": [],
  "returns": {},
  "timestamp": 1751964501,
  "chain": 84532,
  "commit": "3c4ddec"
}